{"abi":[{"type":"constructor","inputs":[{"name":"_poseidon2","type":"address","internalType":"address"},{"name":"_poseidon4","type":"address","internalType":"address"},{"name":"_poseidon5","type":"address","internalType":"address"}],"stateMutability":"nonpayable"},{"type":"function","name":"getRootFromProof","inputs":[{"name":"_leaf","type":"uint256","internalType":"uint256"},{"name":"_position","type":"uint256[]","internalType":"uint256[]"},{"name":"_proof","type":"uint256[]","internalType":"uint256[]"}],"outputs":[{"name":"","type":"uint256","internalType":"uint256"}],"stateMutability":"view"},{"type":"function","name":"hashPoseidon","inputs":[{"name":"_array","type":"uint256[]","internalType":"uint256[]"}],"outputs":[{"name":"","type":"uint256","internalType":"uint256"}],"stateMutability":"view"},{"type":"function","name":"poseidon2","inputs":[],"outputs":[{"name":"","type":"address","internalType":"contract Poseidon2"}],"stateMutability":"view"},{"type":"function","name":"poseidon4","inputs":[],"outputs":[{"name":"","type":"address","internalType":"contract Poseidon4"}],"stateMutability":"view"},{"type":"function","name":"poseidon5","inputs":[],"outputs":[{"name":"","type":"address","internalType":"contract Poseidon5"}],"stateMutability":"view"},{"type":"function","name":"zeroCache","inputs":[{"name":"","type":"uint256","internalType":"uint256"}],"outputs":[{"name":"","type":"uint256","internalType":"uint256"}],"stateMutability":"view"}],"bytecode":{"object":"0x6102806040527f2066be41bebe6caf7e079360abe14fbf9118c62eabc42e2fe75e342b160a95bc60809081527f26318ec8cdeef483522c15e9b226314ae39b86cde2a430dabf6ed19791917c4760a0527f208f08f80330c32744f66ec2d870cf8005325e37019dae71c97ec3e5078df47a60c0527f1cb710d15a6947931c4e8d55a6c7578b178431a815d12f17d024c5cdeb78f4e860e0527f21179ee6530bfe1077ad3c79c294c5fa46317e4d6964899fb66ef877af85471e610100527f130c2d8fabcb34e2b65456ff185966629ded49a1fa49d6b02e154422866222fd610120527f26ba5784df8d67056588b9feb9462cdbe72da5780f450dba0006e40fa06cc38e610140527f05103ef59c8be58fa5e9a355f185a7315576b954784710afc1ad5f9d359b9a0f610160527f0b500c3c7fd5986b2c1556e09fdcab59e8ba7e97873f85404e94d1b0da28e93f610180527f2e8a29a34da818a9ce737e49d79549d10c9c77e28cae96ccfc347fd8065596936101a0527f11f0327a3c35829d63f8306f109757ddb1883aa21d72e6128223c82d096dd5a86101c0527f2d1d07d4b18eacabeae4bf853f727ea63bda1843faae4c90b69ff20f04cac5da6101e0527f14c398ef7ce0c4e1ed73310512def05880627bf49cfda82bca179683ade93b55610200527f23f94be978c49c0778088c1c409ffa3e8fe73ad1450dec3a62fd50f1bff02233610220527f01f637890e5c5ab1a3ecbb5495ccaf64155b7b1d585ec7f2ee5802289374590c610240527f047b5b8a01ef4687de46778e15f50490dd83ce56f63744fd68d9eca6212184a46102605262000263906003906010620002d7565b503480156200027157600080fd5b50604051620010733803806200107383398101604081905262000294916200034e565b600080546001600160a01b039485166001600160a01b03199182161790915560018054938516938216939093179092556002805491909316911617905562000397565b826010810192821562000308579160200282015b8281111562000308578251825591602001919060010190620002eb565b50620003169291506200031a565b5090565b5b808211156200031657600081556001016200031b565b80516001600160a01b03811681146200034957600080fd5b919050565b60008060006060848603121562000363578283fd5b6200036e8462000331565b92506200037e6020850162000331565b91506200038e6040850162000331565b90509250925092565b610ccc80620003a76000396000f3fe608060405234801561001057600080fd5b50600436106100625760003560e01c80630d1dafaa14610067578063a81a268814610085578063c34ca6411461008d578063c67be82d146100ad578063ca5ee4b2146100c0578063ed13e0c9146100c8575b600080fd5b61006f6100db565b60405161007c9190610bda565b60405180910390f35b61006f6100ea565b6100a061009b366004610abf565b6100f9565b60405161007c9190610c2f565b6100a06100bb366004610aef565b610110565b61006f6106c6565b6100a06100d6366004610a50565b6106d5565b6002546001600160a01b031681565b6001546001600160a01b031681565b6003816010811061010957600080fd5b0154905081565b600080825167ffffffffffffffff81111561013b57634e487b7160e01b600052604160045260246000fd5b604051908082528060200260200182016040528015610164578160200160208202803683370190505b5090508360008151811061018857634e487b7160e01b600052603260045260246000fd5b6020026020010151600014156102955760008054906101000a90046001600160a01b03166001600160a01b03166329a5f2f66040518060400160405280888152602001866000815181106101ec57634e487b7160e01b600052603260045260246000fd5b60200260200101518152506040518263ffffffff1660e01b81526004016102139190610b59565b60206040518083038186803b15801561022b57600080fd5b505afa15801561023f573d6000803e3d6000fd5b505050506040513d601f19601f820116820180604052508101906102639190610ad7565b8160008151811061028457634e487b7160e01b600052603260045260246000fd5b6020026020010181815250506103bf565b836000815181106102b657634e487b7160e01b600052603260045260246000fd5b6020026020010151600114156103bf5760008054906101000a90046001600160a01b03166001600160a01b03166329a5f2f660405180604001604052808660008151811061031457634e487b7160e01b600052603260045260246000fd5b60200260200101518152602001888152506040518263ffffffff1660e01b81526004016103419190610b59565b60206040518083038186803b15801561035957600080fd5b505afa15801561036d573d6000803e3d6000fd5b505050506040513d601f19601f820116820180604052508101906103919190610ad7565b816000815181106103b257634e487b7160e01b600052603260045260246000fd5b6020026020010181815250505b60015b8351811015610686578481815181106103eb57634e487b7160e01b600052603260045260246000fd5b60200260200101516000141561051a57600054604080518082019091526001600160a01b03909116906329a5f2f6908085610427600187610c38565b8151811061044557634e487b7160e01b600052603260045260246000fd5b6020026020010151815260200187858151811061047257634e487b7160e01b600052603260045260246000fd5b60200260200101518152506040518263ffffffff1660e01b81526004016104999190610b59565b60206040518083038186803b1580156104b157600080fd5b505afa1580156104c5573d6000803e3d6000fd5b505050506040513d601f19601f820116820180604052508101906104e99190610ad7565b82828151811061050957634e487b7160e01b600052603260045260246000fd5b602002602001018181525050610674565b84818151811061053a57634e487b7160e01b600052603260045260246000fd5b6020026020010151600114156106745760008054906101000a90046001600160a01b03166001600160a01b03166329a5f2f6604051806040016040528087858151811061059757634e487b7160e01b600052603260045260246000fd5b60200260200101518152602001856001866105b29190610c38565b815181106105d057634e487b7160e01b600052603260045260246000fd5b60200260200101518152506040518263ffffffff1660e01b81526004016105f79190610b59565b60206040518083038186803b15801561060f57600080fd5b505afa158015610623573d6000803e3d6000fd5b505050506040513d601f19601f820116820180604052508101906106479190610ad7565b82828151811061066757634e487b7160e01b600052603260045260246000fd5b6020026020010181815250505b8061067e81610c4f565b9150506103c2565b5080600182516106969190610c38565b815181106106b457634e487b7160e01b600052603260045260246000fd5b60200260200101519150509392505050565b6000546001600160a01b031681565b6000818160028214156107dd576106ea61095e565b60005b60028110156107545786868281811061071657634e487b7160e01b600052603260045260246000fd5b9050602002013582826002811061073d57634e487b7160e01b600052603260045260246000fd5b60200201528061074c81610c4f565b9150506106ed565b506000546040516314d2f97b60e11b81526001600160a01b03909116906329a5f2f690610785908490600401610b59565b60206040518083038186803b15801561079d57600080fd5b505afa1580156107b1573d6000803e3d6000fd5b505050506040513d601f19601f820116820180604052508101906107d59190610ad7565b915050610956565b8160041415610889576107ee61097c565b60005b60048110156108585786868281811061081a57634e487b7160e01b600052603260045260246000fd5b9050602002013582826004811061084157634e487b7160e01b600052603260045260246000fd5b60200201528061085081610c4f565b9150506107f1565b5060015460405163248f667760e01b81526001600160a01b039091169063248f667790610785908490600401610b8a565b81600514156109355761089a61099a565b60005b6005811015610904578686828181106108c657634e487b7160e01b600052603260045260246000fd5b905060200201358282600581106108ed57634e487b7160e01b600052603260045260246000fd5b6020020152806108fc81610c4f565b91505061089d565b50600254604051630926f44b60e31b81526001600160a01b0390911690634937a25890610785908490600401610bb2565b60405162461bcd60e51b815260040161094d90610bee565b60405180910390fd5b949350505050565b60405180604001604052806002906020820280368337509192915050565b60405180608001604052806004906020820280368337509192915050565b6040518060a001604052806005906020820280368337509192915050565b600082601f8301126109c8578081fd5b8135602067ffffffffffffffff808311156109e5576109e5610c80565b81830260405183828201018181108482111715610a0457610a04610c80565b60405284815283810192508684018288018501891015610a22578687fd5b8692505b85831015610a44578035845292840192600192909201918401610a26565b50979650505050505050565b60008060208385031215610a62578182fd5b823567ffffffffffffffff80821115610a79578384fd5b818501915085601f830112610a8c578384fd5b813581811115610a9a578485fd5b8660208083028501011115610aad578485fd5b60209290920196919550909350505050565b600060208284031215610ad0578081fd5b5035919050565b600060208284031215610ae8578081fd5b5051919050565b600080600060608486031215610b03578081fd5b83359250602084013567ffffffffffffffff80821115610b21578283fd5b610b2d878388016109b8565b93506040860135915080821115610b42578283fd5b50610b4f868287016109b8565b9150509250925092565b60408101818360005b6002811015610b81578151835260209283019290910190600101610b62565b50505092915050565b60808101818360005b6004811015610b81578151835260209283019290910190600101610b93565b60a08101818360005b6005811015610b81578151835260209283019290910190600101610bbb565b6001600160a01b0391909116815260200190565b60208082526021908201527f4c656e677468206f66206172726179206973206e6f742073757070706f7274656040820152601960fa1b606082015260800190565b90815260200190565b600082821015610c4a57610c4a610c6a565b500390565b6000600019821415610c6357610c63610c6a565b5060010190565b634e487b7160e01b600052601160045260246000fd5b634e487b7160e01b600052604160045260246000fdfea26469706673582212201e0156e988facab2e90ca26a8d80e4d1ca84230711b8584d7b2f2ad77e417e1464736f6c63430008000033","linkReferences":{}},"methodIdentifiers":{"getRootFromProof(uint256,uint256[],uint256[])":"c67be82d","hashPoseidon(uint256[])":"ed13e0c9","poseidon2()":"ca5ee4b2","poseidon4()":"a81a2688","poseidon5()":"0d1dafaa","zeroCache(uint256)":"c34ca641"},"id":21}