{"abi":[{"type":"constructor","inputs":[{"name":"_poseidonMerkle","type":"address","internalType":"address"}],"stateMutability":"nonpayable"},{"type":"function","name":"BAL_DEPTH","inputs":[],"outputs":[{"name":"","type":"uint256","internalType":"uint256"}],"stateMutability":"view"},{"type":"function","name":"TX_DEPTH","inputs":[],"outputs":[{"name":"","type":"uint256","internalType":"uint256"}],"stateMutability":"view"},{"type":"function","name":"approveToken","inputs":[{"name":"tokenContractAddress","type":"address","internalType":"address"}],"outputs":[],"stateMutability":"nonpayable"},{"type":"function","name":"currentRoot","inputs":[],"outputs":[{"name":"","type":"uint256","internalType":"uint256"}],"stateMutability":"view"},{"type":"function","name":"deposit","inputs":[{"name":"pubkey","type":"uint256[2]","internalType":"uint256[2]"},{"name":"amount","type":"uint256","internalType":"uint256"},{"name":"tokenType","type":"uint256","internalType":"uint256"}],"outputs":[],"stateMutability":"payable"},{"type":"function","name":"depositSubtreeHeight","inputs":[],"outputs":[{"name":"","type":"uint256","internalType":"uint256"}],"stateMutability":"view"},{"type":"function","name":"numTokens","inputs":[],"outputs":[{"name":"","type":"uint256","internalType":"uint256"}],"stateMutability":"view"},{"type":"function","name":"operator","inputs":[],"outputs":[{"name":"","type":"address","internalType":"address"}],"stateMutability":"view"},{"type":"function","name":"pendingDeposits","inputs":[{"name":"","type":"uint256","internalType":"uint256"}],"outputs":[{"name":"","type":"uint256","internalType":"uint256"}],"stateMutability":"view"},{"type":"function","name":"pendingTokens","inputs":[{"name":"","type":"address","internalType":"address"}],"outputs":[{"name":"","type":"bool","internalType":"bool"}],"stateMutability":"view"},{"type":"function","name":"poseidonMerkle","inputs":[],"outputs":[{"name":"","type":"address","internalType":"contract IPoseidonMerkle"}],"stateMutability":"view"},{"type":"function","name":"processDeposits","inputs":[{"name":"subtreeDepth","type":"uint256","internalType":"uint256"},{"name":"subtreePosition","type":"uint256[]","internalType":"uint256[]"},{"name":"subtreeProof","type":"uint256[]","internalType":"uint256[]"}],"outputs":[{"name":"","type":"uint256","internalType":"uint256"}],"stateMutability":"nonpayable"},{"type":"function","name":"processedWithdrawals","inputs":[{"name":"","type":"uint256","internalType":"uint256"}],"outputs":[{"name":"","type":"bool","internalType":"bool"}],"stateMutability":"view"},{"type":"function","name":"queueNumber","inputs":[],"outputs":[{"name":"","type":"uint256","internalType":"uint256"}],"stateMutability":"view"},{"type":"function","name":"registerToken","inputs":[{"name":"tokenContractAddress","type":"address","internalType":"address"}],"outputs":[],"stateMutability":"nonpayable"},{"type":"function","name":"registeredTokens","inputs":[{"name":"","type":"uint256","internalType":"uint256"}],"outputs":[{"name":"","type":"address","internalType":"address"}],"stateMutability":"view"},{"type":"function","name":"tokenContract","inputs":[],"outputs":[{"name":"","type":"address","internalType":"contract IERC20"}],"stateMutability":"view"},{"type":"function","name":"updateNumber","inputs":[],"outputs":[{"name":"","type":"uint256","internalType":"uint256"}],"stateMutability":"view"},{"type":"function","name":"updateState","inputs":[{"name":"a","type":"uint256[2]","internalType":"uint256[2]"},{"name":"b","type":"uint256[2][2]","internalType":"uint256[2][2]"},{"name":"c","type":"uint256[2]","internalType":"uint256[2]"},{"name":"input","type":"uint256[15]","internalType":"uint256[15]"}],"outputs":[],"stateMutability":"nonpayable"},{"type":"function","name":"updates","inputs":[{"name":"","type":"uint256","internalType":"uint256"}],"outputs":[{"name":"","type":"uint256","internalType":"uint256"}],"stateMutability":"view"},{"type":"function","name":"verifyProof","inputs":[{"name":"_pA","type":"uint256[2]","internalType":"uint256[2]"},{"name":"_pB","type":"uint256[2][2]","internalType":"uint256[2][2]"},{"name":"_pC","type":"uint256[2]","internalType":"uint256[2]"},{"name":"_pubSignals","type":"uint256[15]","internalType":"uint256[15]"}],"outputs":[{"name":"","type":"bool","internalType":"bool"}],"stateMutability":"view"},{"type":"function","name":"verifyWithdrawProof","inputs":[{"name":"_pA","type":"uint256[2]","internalType":"uint256[2]"},{"name":"_pB","type":"uint256[2][2]","internalType":"uint256[2][2]"},{"name":"_pC","type":"uint256[2]","internalType":"uint256[2]"},{"name":"_pubSignals","type":"uint256[3]","internalType":"uint256[3]"}],"outputs":[{"name":"","type":"bool","internalType":"bool"}],"stateMutability":"view"},{"type":"function","name":"withdraw","inputs":[{"name":"txInfo","type":"uint256[9]","internalType":"uint256[9]"},{"name":"position","type":"uint256[]","internalType":"uint256[]"},{"name":"proof","type":"uint256[]","internalType":"uint256[]"},{"name":"recipient","type":"address","internalType":"address"},{"name":"a","type":"uint256[2]","internalType":"uint256[2]"},{"name":"b","type":"uint256[2][2]","internalType":"uint256[2][2]"},{"name":"c","type":"uint256[2]","internalType":"uint256[2]"}],"outputs":[],"stateMutability":"nonpayable"},{"type":"event","name":"RegisteredToken","inputs":[{"name":"tokenType","type":"uint256","indexed":false,"internalType":"uint256"},{"name":"tokenContract","type":"address","indexed":false,"internalType":"address"}],"anonymous":false},{"type":"event","name":"RequestDeposit","inputs":[{"name":"pubKey","type":"uint256[2]","indexed":false,"internalType":"uint256[2]"},{"name":"amount","type":"uint256","indexed":false,"internalType":"uint256"},{"name":"tokenType","type":"uint256","indexed":false,"internalType":"uint256"}],"anonymous":false},{"type":"event","name":"UpdatedState","inputs":[{"name":"currentRoot","type":"uint256","indexed":false,"internalType":"uint256"},{"name":"oldRoot","type":"uint256","indexed":false,"internalType":"uint256"},{"name":"txRoot","type":"uint256","indexed":false,"internalType":"uint256"}],"anonymous":false},{"type":"event","name":"Withdraw","inputs":[{"name":"accountInfo","type":"uint256[9]","indexed":false,"internalType":"uint256[9]"},{"name":"recipient","type":"address","indexed":false,"internalType":"address"}],"anonymous":false}],"bytecode":{"object":"0x6080604052600460085560026009553480156200001b57600080fd5b50604051620032d3380380620032d38339810160408190526200003e916200010c565b600080546001600160a01b0319166001600160a01b03838116919091179182905560085460405163c34ca64160e01b8152929091169163c34ca64191620000889160040162000155565b60206040518083038186803b158015620000a157600080fd5b505afa158015620000b6573d6000803e3d6000fd5b505050506040513d601f19601f82011682018060405250810190620000dc91906200013c565b60025550600380546001600160a01b031916331790556001600c556000600581905560068190556007556200015e565b6000602082840312156200011e578081fd5b81516001600160a01b038116811462000135578182fd5b9392505050565b6000602082840312156200014e578081fd5b5051919050565b90815260200190565b613165806200016e6000396000f3fe6080604052600436106101405760003560e01c80639a0ba2ea116100b6578063ca717ee21161006f578063ca717ee21461034a578063d63a2c181461035f578063dde4d95014610374578063f054a9a314610394578063fdab463d146103b4578063ff1bbc4e146103c957610140565b80639a0ba2ea1461028a578063a7932794146102aa578063aeaa98cf146102ca578063b4c2f727146102ea578063c031a66f1461030a578063c60421191461032a57610140565b806355a373d61161010857806355a373d6146101dc578063570ca735146101fe5780635dc13b2814610213578063772510d41461024057806380b2edd8146102555780638e499bcf1461027557610140565b806309824a80146101455780631b6a2481146101675780632882dd98146101925780632bd7619a146101a75780632fa6779a146101c7575b600080fd5b34801561015157600080fd5b50610165610160366004612751565b6103dc565b005b34801561017357600080fd5b5061017c610442565b6040516101899190612e91565b60405180910390f35b34801561019e57600080fd5b5061017c610448565b3480156101b357600080fd5b506101656101c236600461276b565b61044e565b3480156101d357600080fd5b5061017c610517565b3480156101e857600080fd5b506101f161051d565b6040516101899190612a73565b34801561020a57600080fd5b506101f161052c565b34801561021f57600080fd5b5061023361022e3660046127c9565b61053b565b6040516101899190612bd2565b34801561024c57600080fd5b506101f1610a1f565b34801561026157600080fd5b50610165610270366004612751565b610a2e565b34801561028157600080fd5b5061017c610af9565b34801561029657600080fd5b506101f16102a536600461299f565b610aff565b3480156102b657600080fd5b5061017c6102c536600461299f565b610b1a565b3480156102d657600080fd5b5061017c6102e53660046129cf565b610b3b565b3480156102f657600080fd5b5061017c61030536600461299f565b610da6565b34801561031657600080fd5b50610233610325366004612751565b610db8565b34801561033657600080fd5b50610165610345366004612874565b610dcd565b34801561035657600080fd5b5061017c611221565b34801561036b57600080fd5b5061017c611227565b34801561038057600080fd5b5061023361038f36600461299f565b61122d565b3480156103a057600080fd5b506102336103af36600461276b565b611242565b3480156103c057600080fd5b5061017c611af9565b6101656103d73660046127e0565b611aff565b6001600160a01b0381166000908152600a602052604090205460ff161561041e5760405162461bcd60e51b815260040161041590612e5a565b60405180910390fd5b6001600160a01b03166000908152600a60205260409020805460ff19166001179055565b60075481565b60065481565b6003546001600160a01b0316331461047657634e487b7160e01b600052600160045260246000fd5b60025460408201351461048857600080fd5b61049484848484611242565b61049d57600080fd5b8035600255600780549060006104b28361309e565b90915550506007546020828101356000818152600d9092526040918290209290925580517fbe4212065768908e69f6c63172b1d155abe731f87bfc61b83a5c3b93f12c853f92610509928535929086013590612ee6565b60405180910390a150505050565b60055481565b6001546001600160a01b031681565b6003546001600160a01b031681565b60006109c8565b6000805160206131108339815191528110610561576000805260206000f35b50565b600060405183815284602082015285604082015260408160608360076107d05a03fa915081610597576000805260206000f35b825160408201526020830151606082015260408360808360066107d05a03fa915050806105c8576000805260206000f35b5050505050565b7f0713a12cc5c7e1dc3ed924543200ce4f2ad0317bfff219a5d414806a77246d7c85527f0ac146ba196558b9e80c0bcf97f09d1f94d75f7c275f484a04df95ad8d6fe38b60208601526000608086018661066c87357f20aacdd29369dbd54267f5dbb0b9b5705190e8ebea80ec3ba7ba4a1c826aa5d57f15e4f8bc4da3fa71c260a30af7369df3b7984da6fc3dd4201025e8b09d9baa0784610564565b6106bc60208801357f1e6a264621bb15c8249cdcd83c4a214355dcbf98b9ae4732f9b7061ad37c42ba7f1fd21e694833cb018fb0d3b5df3d1e0d11e4bd26c12f49ff15300409026f418f84610564565b61070c60408801357f196319b63b8c402d7727dfdd9d9ef334a80a2fb71457f46034645b92ed36a57d7f21942c5d2a64d7b4873c969bba6f035a3f3d7ec996a3dfc55a2c40957ce9a72b84610564565b5082358152600080516020613110833981519152602084013560008051602061311083398151915203066020820152833560408201526020840135606082015260408401356080820152606084013560a08201527f0153014a3f07ebfe3184102ceb7c3d9c114117d03dd26a66b8a30fc107ebef2f60c08201527f05181bf4d3d276a2279ed9a8150e0b2dfe1afd60f6ba0282a93b8e1ded33648a60e08201527f263086e659ecb868d18f6ef88cc228f1a67487f5f3bbbfde3a89a91151a10db56101008201527f256ba25dfd9ae6b35b8aeb0781948fa297f7e0ad37d5f42ecbf0c48254911bd86101208201527f02178987498ec4862528d994fc670ed1b71610cb26621559b8335cd42a4bacf86101408201527f2b97261f8bdd82c81184da7483510833d852e68a0a18946d14e0b92afeb0ceda610160820152600087015161018082015260206000018701516101a08201527f198e9393920d483a7260bfb731fb5d25f1aa493335a9e71297e485b7aef312c26101c08201527f1800deef121f1e76426a00665e5c4479674322d4f75edadd46debd5cd992f6ed6101e08201527f090689d0585ff075ec9e99ad690c3395bc4b313370b38ef355acdadcd122975b6102008201527f12c85ea5db8c6deb4aab71808dcb408fe3d1e7690c43d37b4ce6cc0166fa7daa610220820152843561024082015260208501356102608201527f2d4bd3a794bf137f41884be046f5385c959efc08e439050b8e1949b2ee0f19f76102808201527f1611dee44dd460f126f615932fb5cfb1af69e71bd39a3472522bd8d043f1ab006102a08201527f18242dcc50ead61affe3872b4b125ef621151011ba805577d5567a13908052376102c08201527f27b9942ce4cc46005bc46c8f45480a1cb1fc20ccc039ba9811e4b13fda454bb56102e08201526020816103008360086107d05a03fa9051169695505050505050565b60405161038081016040526109e06000840135610542565b6109ed6020840135610542565b6109fa6040840135610542565b610a076060840135610542565b610a14818486888a6105cf565b600090815260209150f35b6000546001600160a01b031681565b6003546001600160a01b03163314610a5657634e487b7160e01b600052600160045260246000fd5b6001600160a01b0381166000908152600a602052604090205460ff16610a7b57600080fd5b600c8054906000610a8b8361309e565b9091555050600c80546000908152600b60205260409081902080546001600160a01b0319166001600160a01b038516179055905490517f5dbaa701a7acef513f72a61799f7e50f4653f462b9f780d88d1b9bec89de216891610aee918490612e9a565b60405180910390a150565b600c5481565b600b602052600090815260409020546001600160a01b031681565b60048181548110610b2a57600080fd5b600091825260209091200154905081565b6003546000906001600160a01b03163314610b6657634e487b7160e01b600052600160045260246000fd5b6000805460405163c34ca64160e01b81526001600160a01b039091169063c34ca64190610b97908890600401612e91565b60206040518083038186803b158015610baf57600080fd5b505afa158015610bc3573d6000803e3d6000fd5b505050506040513d601f19601f82011682018060405250810190610be791906129b7565b9050610c1a6040518060400160405280600d81526020016c031bab93932b73a2937b7ba1d1609d1b815250600254612097565b60005460405163c67be82d60e01b81526001600160a01b039091169063c67be82d90610c4e90849088908890600401612eb1565b60206040518083038186803b158015610c6657600080fd5b505afa158015610c7a573d6000803e3d6000fd5b505050506040513d601f19601f82011682018060405250810190610c9e91906129b7565b60025414610cbe5760405162461bcd60e51b815260040161041590612e23565b60008054600480546001600160a01b039092169263c67be82d92610cf257634e487b7160e01b600052603260045260246000fd5b906000526020600020015486866040518463ffffffff1660e01b8152600401610d1d93929190612eb1565b60206040518083038186803b158015610d3557600080fd5b505afa158015610d49573d6000803e3d6000fd5b505050506040513d601f19601f82011682018060405250810190610d6d91906129b7565b600255610d7a60006120e0565b50600654610d89906002612fb9565b600554610d969190613087565b60055550506002545b9392505050565b600d6020526000908152604090205481565b600a6020526000908152604090205460ff1681565b60e0870151610dee5760405162461bcd60e51b815260040161041590612d41565b6000610df98861220d565b60005460405163c67be82d60e01b81529192506001600160a01b03169063c67be82d90610e2e9084908b908b90600401612eb1565b60206040518083038186803b158015610e4657600080fd5b505afa158015610e5a573d6000803e3d6000fd5b505050506040513d601f19601f82011682018060405250810190610e7e91906129b7565b61010089015114610ea15760405162461bcd60e51b815260040161041590612dc6565b604080516002808252606082018352600092602083019080368337019050509050886005602002015181600081518110610eeb57634e487b7160e01b600052603260045260246000fd5b602002602001018181525050856001600160a01b031681600181518110610f2257634e487b7160e01b600052603260045260246000fd5b602002602001018181525050306001600160a01b0316635dc13b2886868660405180606001604052808f600060098110610f6c57634e487b7160e01b600052603260045260246000fd5b602002015181526020018f600160098110610f9757634e487b7160e01b600052603260045260246000fd5b6020020151815260200160008054906101000a90046001600160a01b03166001600160a01b031663ed13e0c9896040518263ffffffff1660e01b8152600401610fe09190612bbf565b60206040518083038186803b158015610ff857600080fd5b505afa15801561100c573d6000803e3d6000fd5b505050506040513d601f19601f8201168201806040525081019061103091906129b7565b8152506040518563ffffffff1660e01b81526004016110529493929190612ac4565b60206040518083038186803b15801561106a57600080fd5b505afa15801561107e573d6000803e3d6000fd5b505050506040513d601f19601f820116820180604052508101906110a2919061297f565b6110be5760405162461bcd60e51b815260040161041590612d0a565b60e08901516001141561110a5760c08901516040516001600160a01b0388169180156108fc02916000818181858888f19350505050158015611104573d6000803e3d6000fd5b506111dd565b60e08901516000908152600b60205260409081902054600180546001600160a01b0319166001600160a01b039283169081179182905560c08d0151935163a9059cbb60e01b81529093919092169163a9059cbb9161116d918b9190600401612aab565b602060405180830381600087803b15801561118757600080fd5b505af115801561119b573d6000803e3d6000fd5b505050506040513d601f19601f820116820180604052508101906111bf919061297f565b6111db5760405162461bcd60e51b815260040161041590612caa565b505b7f7c9340409a8553f5343f2576a3dcd04f4942e93aa53fad25ba8c009b0e39fa38898760405161120e929190612b7a565b60405180910390a1505050505050505050565b60085481565b60095481565b600e6020526000908152604090205460ff1681565b6000611a09565b7f0d3458ae866d5bb1a8e0bc80563c987d238bff88f385b7731475dac26cec64cb85527f234bce5f840f34702a883c9dc013607af15b142df5b39497a496909a6ff0aae96020860152600060808601866112e687357f0c898bacf7d4b63c13018e16c0b4d58388869296bb485a17efa68b06cddbb5e77f0eb2d6ceccd6f2f2f24aef9c37e34f631e9c8b16d71436936621a54775439ebc84610564565b61133660208801357f303d02576f1aa35327462cf639db7f325598d516801590ab875c7d8a1d5374577f242c7fc5ad8dbc8ef8495ca5bfe727edf9addc39e7217c3836d76a180651d83e84610564565b61138660408801357f07499605ea964a2c11a8e955af06210906e784dbf9358c86a665847e8ed536807f21ff313a7f85491a16dc2a043a5819a6c13bc2f4e73d51149563d50b2c98600f84610564565b6113d660608801357f0436cb205bd4d09ec024fc4a7384810d76d53bb491c9f0df6ffd0ef8dbb82b3f7f25f79edbb7cc7d087ed8c957d66f598b9da3b9610627e5035d1a1a825cbca99584610564565b61142660808801357f260216b34a4e0d37f5d8f90b79fa8e79bee4096c8c2553ef895eabc4071079ec7f2be94992b9081f1303a2ab479aebe0084a6f45bacc41a8624a4351493d81e58c84610564565b61147660a08801357f092b0b7bc699343b878a66ad2ac429cbcc4330359db2305336b367afe4c7e7397f03a2ebb91322adcd99056cff99ba9a991fe6585db4dbbf2b9a1bfd914208cc8184610564565b6114c660c08801357f126131665bcc9e467ea1ab3ea6c925ea476856d5b4e911680464362230dc2dd87f29b9a0023753f59ac7d63c9ba13cfe6e3a58645f2ab9aa3b49c27c4f976eb9b984610564565b61151660e08801357f142c75eb570ec960791adf7c5f22e3af4c76dc1fe3acd2ca5639ccb4755e4fe47f283b0cde6b33506a0de853fabdbea81d5815503ea50904a6931ffe26dbdd228684610564565b6115676101008801357f1f6bce59d566db6cf0564c5eabf655b2c2d1750d55cffff322374a9a913bb1f17f0a2f859b91cdaf33c39612f9cca0e9390d59a8eff56ef5b1225fcaa1315ba1a384610564565b6115b86101208801357f0be6e4472e67f84f025a34dc8f4d49b7b5cfffc2cbb9fbc771c02357accb67887f044594cb97c8fd31485bfb0f87971a11dcc5962bcd59e274a6482387eec4429b84610564565b6116096101408801357f2ac9ca9a57fe0dace606ce07e3445012e804a2b83c4816298afbc202a5e85e287f2f4057c0ba31f9b405b1677459a3b01b183c7dad75929a97fcc59b55bdcdfd2784610564565b61165a6101608801357f12bf1cd18e0e87edcfc73710fe9bfc9005913215331a19a8848dac74e91d40387f1d1436d36cbf10fdada3e962bba26422744c0a6ede57e2eae15c6a5296e8148784610564565b6116ab6101808801357f27705aecf3d00bbec9ac0071034071a0147fc5745beb7b322d07e690e1c2f3dd7f1d24d47e309d82bbd32a9ea461bd44b91b1d6765e423100ea1eef41f802e7acb84610564565b6116fc6101a08801357f04ee049989201498aa06ab92586bad0f13006bc68b78ad1e5cfc74192d50101b7f2fe164782dd79a8f7ed52493694397714d9715e75a03ef762df354d2f27d91f284610564565b61174d6101c08801357f2b23fe3dd06b9a83c2c724736b31b4e640f2ff1c5161156a6ce984230cd54dae7f26e727a4b911266dc38d4fe220874e64933d579a44acde20e167087a9cc4567f84610564565b5082358152600080516020613110833981519152602084013560008051602061311083398151915203066020820152833560408201526020840135606082015260408401356080820152606084013560a08201527f16fe65ec3393cccb4e2b31e2994ff619b45a678b8f20bba6509bebb0cb50a64760c08201527f0f104ab3c6c31e313bb52676bb27e3ff960e2053e29627c4d09ec1849bf915cc60e08201527f22185c9caa83418a44d3bf309237e0cab77fbd81faeccc2e280d3dfa6e3f5cbf6101008201527f16ed0634a68313d5853084379d3ede70f292b22fb49a37b077ab47f2863489526101208201527f282c0e9b67850f5d7a3c99633210b5203eac2cf9bbd3516938a25ca85dc918276101408201527f23f96dbc30096514f82ead0de43cb64ee4836da12695e07c44f20b5566378fbc610160820152600087015161018082015260206000018701516101a08201527f198e9393920d483a7260bfb731fb5d25f1aa493335a9e71297e485b7aef312c26101c08201527f1800deef121f1e76426a00665e5c4479674322d4f75edadd46debd5cd992f6ed6101e08201527f090689d0585ff075ec9e99ad690c3395bc4b313370b38ef355acdadcd122975b6102008201527f12c85ea5db8c6deb4aab71808dcb408fe3d1e7690c43d37b4ce6cc0166fa7daa610220820152843561024082015260208501356102608201527f2f7c354af971a0f7721d136cf63f66c7832a3b1bf6d7647a3e9f89464ad3b1e96102808201527f1952e8dfcbaa90ac09b4c2b78b5e12084f63e66c108090a90d581bd3fba7e0b26102a08201527f2e2d6f39e78b975a5a4fb2e014c3e7e7d8e089001086a07c96e0f06c1fbdef9c6102c08201527f20927a38995dcdc047de91e943d110b35967ff8dbe1978a4442045cb2c63c6e56102e08201526020816103008360086107d05a03fa9051169695505050505050565b6040516103808101604052611a216000840135610542565b611a2e6020840135610542565b611a3b6040840135610542565b611a486060840135610542565b611a556080840135610542565b611a6260a0840135610542565b611a6f60c0840135610542565b611a7c60e0840135610542565b611a8a610100840135610542565b611a98610120840135610542565b611aa6610140840135610542565b611ab4610160840135610542565b611ac2610180840135610542565b611ad06101a0840135610542565b611ade6101c0840135610542565b611aec6101e0840135610542565b610a14818486888a611249565b60025481565b80611b48576003546001600160a01b03163314611b2e5760405162461bcd60e51b815260040161041590612c38565b81158015611b3a575034155b611b4357600080fd5b611c6e565b8060011415611b7d57600034118015611b615750813410155b611b435760405162461bcd60e51b815260040161041590612d99565b6001811115611c6e5760008211611ba65760405162461bcd60e51b815260040161041590612d99565b6000818152600b60205260409081902054600180546001600160a01b0319166001600160a01b039283169081179182905592516323b872dd60e01b81529116906323b872dd90611bfe90339030908890600401612a87565b602060405180830381600087803b158015611c1857600080fd5b505af1158015611c2c573d6000803e3d6000fd5b505050506040513d601f19601f82011682018060405250810190611c50919061297f565b611c6c5760405162461bcd60e51b815260040161041590612d6d565b505b60408051600580825260c082019092526000916020820160a08036833750508551825192935091839150600090611cb557634e487b7160e01b600052603260045260246000fd5b6020908102919091010152836001602002015181600181518110611ce957634e487b7160e01b600052603260045260246000fd5b6020026020010181815250508281600281518110611d1757634e487b7160e01b600052603260045260246000fd5b602002602001018181525050600081600381518110611d4657634e487b7160e01b600052603260045260246000fd5b6020026020010181815250508181600481518110611d7457634e487b7160e01b600052603260045260246000fd5b60209081029190910101526000805460405163ed13e0c960e01b81526001600160a01b039091169063ed13e0c990611db0908590600401612bbf565b60206040518083038186803b158015611dc857600080fd5b505afa158015611ddc573d6000803e3d6000fd5b505050506040513d601f19601f82011682018060405250810190611e0091906129b7565b600480546001810182556000919091527f8a35acfbc15ff81a39ae7d344fd709f28e8600b4aa8c65c6b64bfe7fe36bd19b018190556040519091507f595b7e310cd1b7e94b72db62a3257c5fa242cbca10740eb40ae49044f5dcff1f90611e6c90879087908790612b3e565b60405180910390a160058054906000611e848361309e565b90915550506005546000905b611e9b6002826130b9565b61207e5760408051600280825260608201835260009260208301908036833750506004805492935091611ed19150600290613087565b81548110611eef57634e487b7160e01b600052603260045260246000fd5b906000526020600020015481600081518110611f1b57634e487b7160e01b600052603260045260246000fd5b602090810291909101015260048054611f3690600190613087565b81548110611f5457634e487b7160e01b600052603260045260246000fd5b906000526020600020015481600181518110611f8057634e487b7160e01b600052603260045260246000fd5b602090810291909101015260005460405163ed13e0c960e01b81526001600160a01b039091169063ed13e0c990611fbb908490600401612bbf565b60206040518083038186803b158015611fd357600080fd5b505afa158015611fe7573d6000803e3d6000fd5b505050506040513d601f19601f8201168201806040525081019061200b91906129b7565b6004805461201b90600290613087565b8154811061203957634e487b7160e01b600052603260045260246000fd5b60009182526020909120015560045461205d9061205890600190613087565b6120e0565b50612069600283612f5f565b9150826120758161309e565b93505050611e90565b60065482111561208e5760068290555b50505050505050565b6120dc82826040516024016120ad929190612bdd565b60408051601f198184030181529190526020810180516001600160e01b03166309710a9d60e41b17905261266f565b5050565b60045460609082106120f157600080fd5b815b60045461210290600190613087565b81101561217e576004612116826001612f47565b8154811061213457634e487b7160e01b600052603260045260246000fd5b90600052602060002001546004828154811061216057634e487b7160e01b600052603260045260246000fd5b600091825260209091200155806121768161309e565b9150506120f3565b50600480548061219e57634e487b7160e01b600052603160045260246000fd5b60019003818190600052602060002001600090559055600480548060200260200160405190810160405280929190818152602001828054801561220057602002820191906000526020600020905b8154815260200190600101908083116121ec575b505050505090505b919050565b6101008101516000908152600d602052604081205461223e5760405162461bcd60e51b815260040161041590612cd3565b60408051600480825260a08201909252600091602082016080803683375050845182519293509183915060009061228557634e487b7160e01b600052603260045260246000fd5b60209081029190910101528260016020020151816001815181106122b957634e487b7160e01b600052603260045260246000fd5b60209081029190910101528260036020020151816002815181106122ed57634e487b7160e01b600052603260045260246000fd5b602090810291909101015282600460200201518160038151811061232157634e487b7160e01b600052603260045260246000fd5b602090810291909101015260408051600480825260a0820190925260009181602001602082028036833701905050905083600260200201518160008151811061237a57634e487b7160e01b600052603260045260246000fd5b60209081029190910101528360046020020151816001815181106123ae57634e487b7160e01b600052603260045260246000fd5b60209081029190910101528360066020020151816002815181106123e257634e487b7160e01b600052603260045260246000fd5b602090810291909101015283600760200201518160038151811061241657634e487b7160e01b600052603260045260246000fd5b602090810291909101015260408051600280825260608201909252600091816020016020820280368337505060005460405163ed13e0c960e01b81529293506001600160a01b03169163ed13e0c99150612474908690600401612bbf565b60206040518083038186803b15801561248c57600080fd5b505afa1580156124a0573d6000803e3d6000fd5b505050506040513d601f19601f820116820180604052508101906124c491906129b7565b816000815181106124e557634e487b7160e01b600052603260045260246000fd5b602090810291909101015260005460405163ed13e0c960e01b81526001600160a01b039091169063ed13e0c990612520908590600401612bbf565b60206040518083038186803b15801561253857600080fd5b505afa15801561254c573d6000803e3d6000fd5b505050506040513d601f19601f8201168201806040525081019061257091906129b7565b8160018151811061259157634e487b7160e01b600052603260045260246000fd5b602090810291909101015260005460405163ed13e0c960e01b81526001600160a01b039091169063ed13e0c9906125cc908490600401612bbf565b60206040518083038186803b1580156125e457600080fd5b505afa1580156125f8573d6000803e3d6000fd5b505050506040513d601f19601f8201168201806040525081019061261c91906129b7565b6000818152600e602052604090205490945060ff161561264e5760405162461bcd60e51b815260040161041590612c67565b5050506000818152600e60205260409020805460ff19166001179055919050565b80516a636f6e736f6c652e6c6f67602083016000808483855afa5050505050565b80356001600160a01b038116811461220857600080fd5b80608081018310156126b857600080fd5b92915050565b80604081018310156126b857600080fd5b600082601f8301126126df578081fd5b8135602067ffffffffffffffff8211156126fb576126fb6130f9565b808202612709828201612efc565b838152828101908684018388018501891015612723578687fd5b8693505b85841015612745578035835260019390930192918401918401612727565b50979650505050505050565b600060208284031215612762578081fd5b610d9f82612690565b6000806000806102e0808688031215612782578384fd5b61278c87876126be565b945061279b87604088016126a7565b93506127aa8760c088016126be565b92508681870111156127ba578182fd5b50929591945092610100019150565b600080600080610160808688031215612782578485fd5b6000806000608084860312156127f4578283fd5b84601f850112612802578283fd5b6040516040810181811067ffffffffffffffff82111715612825576128256130f9565b80604052508085604087018881111561283c578687fd5b865b600281101561285d57823584526020938401939092019160010161283e565b509298923597505050606094909401359392505050565b6000806000806000806000610280888a03121561288f578283fd5b88601f89011261289d578283fd5b60096128b06128ab82612f26565b612efc565b808a6101208c018d8111156128c3578788fd5b875b858110156128e35782358552602094850194909201916001016128c5565b50919a505035915067ffffffffffffffff905080821115612902578485fd5b61290e8b838c016126cf565b97506101408a0135915080821115612924578485fd5b506129318a828b016126cf565b9550506129416101608901612690565b9350612951896101808a016126be565b9250612961896101c08a016126a7565b9150612971896102408a016126be565b905092959891949750929550565b600060208284031215612990578081fd5b81518015158114610d9f578182fd5b6000602082840312156129b0578081fd5b5035919050565b6000602082840312156129c8578081fd5b5051919050565b6000806000606084860312156129e3578081fd5b83359250602084013567ffffffffffffffff80821115612a01578283fd5b612a0d878388016126cf565b93506040860135915080821115612a22578283fd5b50612a2f868287016126cf565b9150509250925092565b6000815180845260208085019450808401835b83811015612a6857815187529582019590820190600101612a4c565b509495945050505050565b6001600160a01b0391909116815260200190565b6001600160a01b039384168152919092166020820152604081019190915260600190565b6001600160a01b03929092168252602082015260400190565b61016081016040808784376000838201818152879190815b6002811015612afc57848483379084018281529284019290600101612adc565b5050828760c0870137610100850181815286935091505b6003811015612b32578251825260209283019290910190600101612b13565b50505095945050505050565b60808101818560005b6002811015612b66578151835260209283019290910190600101612b47565b505050604082019390935260600152919050565b6101408101818460005b6009811015612ba3578151835260209283019290910190600101612b84565b5050506001600160a01b03929092166101209190910152919050565b600060208252610d9f6020830184612a39565b901515815260200190565b6000604082528351806040840152815b81811015612c0a5760208187018101516060868401015201612bed565b81811115612c1b5782606083860101525b50602083019390935250601f91909101601f191601606001919050565b6020808252601590820152742932b9b2b93b32b2103337b91037b832b930ba37b960591b604082015260600190565b60208082526023908201527f5769746864726177207472616e73616374696f6e20616c726561647920766f6960408201526219195960ea1b606082015260800190565b6020808252600f908201526e151c985b9cd9995c8819985a5b1959608a1b604082015260600190565b6020808252601f908201527f5472616e73616374696f6e20726f6f7420646f6573206e6f7420657869737400604082015260600190565b6020808252601c908201527f4564445341207369676e6174757265206973206e6f742076616c696400000000604082015260600190565b602080825260129082015271496e76616c696420746f6b656e207479706560701b604082015260600190565b60208082526012908201527126bab9ba1030b8383937bb32903a37b5b2b760711b604082015260600190565b602080825260139082015272125b9cdd59999a58da595b9d08185b5bdd5b9d606a1b604082015260600190565b60208082526038908201527f5472616e73616374696f6e20646f6573206e6f7420657869737420696e20737060408201527f65636966696564207472616e73616374696f6e20726f6f740000000000000000606082015260800190565b6020808252601e908201527f5370656369666965642073756274726565206973206e6f7420656d7074790000604082015260600190565b60208082526018908201527f546f6b656e20616c726561647920726567697374657265640000000000000000604082015260600190565b90815260200190565b9182526001600160a01b0316602082015260400190565b600084825260606020830152612eca6060830185612a39565b8281036040840152612edc8185612a39565b9695505050505050565b9283526020830191909152604082015260600190565b60405181810167ffffffffffffffff81118282101715612f1e57612f1e6130f9565b604052919050565b600067ffffffffffffffff821115612f4057612f406130f9565b5060200290565b60008219821115612f5a57612f5a6130cd565b500190565b600082612f6e57612f6e6130e3565b500490565b80825b6001808611612f855750612fb0565b818704821115612f9757612f976130cd565b80861615612fa457918102915b9490941c938002612f76565b94509492505050565b6000610d9f6000198484600082612fd257506001610d9f565b81612fdf57506000610d9f565b8160018114612ff55760028114612fff5761302c565b6001915050610d9f565b60ff841115613010576130106130cd565b6001841b915084821115613026576130266130cd565b50610d9f565b5060208310610133831016604e8410600b841016171561305f575081810a8381111561305a5761305a6130cd565b610d9f565b61306c8484846001612f73565b80860482111561307e5761307e6130cd565b02949350505050565b600082821015613099576130996130cd565b500390565b60006000198214156130b2576130b26130cd565b5060010190565b6000826130c8576130c86130e3565b500690565b634e487b7160e01b600052601160045260246000fd5b634e487b7160e01b600052601260045260246000fd5b634e487b7160e01b600052604160045260246000fdfe30644e72e131a029b85045b68181585d97816a916871ca8d3c208c16d87cfd47a2646970667358221220a4e9937a06c47dcf1c8f789d0c0d8528146ffd50bbe9a4f90eb9aea79ac77d8864736f6c63430008000033","linkReferences":{}},"methodIdentifiers":{"BAL_DEPTH()":"ca717ee2","TX_DEPTH()":"d63a2c18","approveToken(address)":"80b2edd8","currentRoot()":"fdab463d","deposit(uint256[2],uint256,uint256)":"ff1bbc4e","depositSubtreeHeight()":"2882dd98","numTokens()":"8e499bcf","operator()":"570ca735","pendingDeposits(uint256)":"a7932794","pendingTokens(address)":"c031a66f","poseidonMerkle()":"772510d4","processDeposits(uint256,uint256[],uint256[])":"aeaa98cf","processedWithdrawals(uint256)":"dde4d950","queueNumber()":"2fa6779a","registerToken(address)":"09824a80","registeredTokens(uint256)":"9a0ba2ea","tokenContract()":"55a373d6","updateNumber()":"1b6a2481","updateState(uint256[2],uint256[2][2],uint256[2],uint256[15])":"2bd7619a","updates(uint256)":"b4c2f727","verifyProof(uint256[2],uint256[2][2],uint256[2],uint256[15])":"f054a9a3","verifyWithdrawProof(uint256[2],uint256[2][2],uint256[2],uint256[3])":"5dc13b28","withdraw(uint256[9],uint256[],uint256[],address,uint256[2],uint256[2][2],uint256[2])":"c6042119"},"id":22}